iCONNECT
iSET_SESSION FIX.4.4:ISLD->TW NEXTSENDERSEQNUM=2000

I8=FIX.4.4|35=A|34=1|49=TW|52=<TIME>|56=ISLD|98=0|789=1|108=30|

E8=FIX.4.4|9=70|35=A|34=2000|49=ISLD|52=00000000-00:00:00.000|56=TW|98=0|789=2|108=30|10=0|
E8=FIX.4.4|35=4|34=1|49=ISLD|52=<TIME>|56=TW|36=2001|43=Y|123=Y|

# logout message and response
I8=FIX.4.4|35=5|34=2|49=TW|52=<TIME>|56=ISLD|
E8=FIX.4.4|9=52|35=5|34=2001|49=ISLD|52=00000000-00:00:00.000|56=TW|10=0|

eDISCONNECT