#QFJ-445

iCONNECT
I8=FIXT.1.1|35=A|34=1|49=TW|52=<TIME>|56=ISLD|98=0|108=30|1137=7|
E8=FIXT.1.1|9=68|35=A|34=1|49=ISLD|52=00000000-00:00:00.000|56=TW|98=0|108=30|1137=7|10=0|

# new order single with minimum quantity
I8=FIXT.1.1|35=D|34=2|49=TW|52=<TIME>|56=ISLD|11=id|21=3|38=100|40=1|60=<TIME>|54=1|55=MSFT|110=9|

# expect
E8=FIXT.1.1|9=87|35=D|34=2|49=ISLD|52=00000000-00:00:00|56=TW|11=id|21=3|38=100|40=1|54=1|55=MSFT|110=9|10=0|


# logout message and response
I8=FIXT.1.1|35=5|34=3|49=TW|52=<TIME>|56=ISLD|
E8=FIXT.1.1|9=45|35=5|34=3|49=ISLD|52=00000000-00:00:00|56=TW|10=0|
eDISCONNECT