iCONNECT

I8=FIXT.1.1|35=A|34=1|49=TW|52=<TIME>|56=ISLD|369=0|98=0|108=2|1137=10|
E8=FIXT.1.1|9=74|35=A|34=1|49=ISLD|52=00000000-00:00:00.000|56=TW|369=1|98=0|108=2|1137=10|10=0|

I8=FIXT.1.1|35=1|34=2|49=TW|52=<TIME>|56=ISLD|369=1|112=HELLO|
E8=FIXT.1.1|9=65|35=0|34=2|49=ISLD|52=00000000-00:00:00.000|56=TW|369=2|112=HELLO|10=0|

I8=FIXT.1.1|35=0|34=3|49=TW|52=<TIME>|56=ISLD|369=2|

I8=FIXT.1.1|35=0|34=4|49=TW|52=<TIME>|56=ISLD|369=2|

E8=FIXT.1.1|9=55|35=0|34=3|49=ISLD|52=00000000-00:00:00.000|56=TW|369=4|10=0|



# logout message and response
I8=FIXT.1.1|35=5|34=5|49=TW|52=<TIME>|56=ISLD|369=3|
E8=FIXT.1.1|9=55|35=5|34=4|49=ISLD|52=00000000-00:00:00.000|56=TW|369=5|10=0|

eDISCONNECT