# If message has bad tag, a session-level reject should be sent
# (This is not fully consistent with 2d_GarbledMessage.def which ignores
#  the message. See OpenFIX test 14k.)

iCONNECT
I8=FIX.4.0|35=A|34=1|49=TW|52=<TIME>|56=ISLD|98=0|108=30|
E8=FIX.4.0|35=A|34=1|49=ISLD|52=00000000-00:00:00|56=TW|98=0|108=30|

# Garbled message
I8=FIX.4.0|9=46|35=0|34=2|4|9=TW|52=<TIME>|56=ISLD|10=0|
E8=FIX.4.0|9=81|35=3|34=2|49=ISLD|52=00000000-00:00:00|56=TW|45=2|372=0|373=23|58=Bad tag format|10=0|

# logout message and response
I8=FIX.4.0|35=5|34=3|49=TW|52=<TIME>|56=ISLD|
E8=FIX.4.0|9=45|35=5|34=3|49=ISLD|52=00000000-00:00:00|56=TW|10=0|

eDISCONNECT