# If message is garbled and setting RejectGarbledMessage=Y, then msg should be rejected

iCONNECT
I8=FIXT.1.1|35=A|34=1|49=TW|52=<TIME>|56=ISLD|98=0|108=30|1137=10|
E8=FIXT.1.1|9=68|35=A|34=1|49=ISLD|52=00000000-00:00:00.000|56=TW|98=0|108=30|1137=10|10=7|

# Incorrect checksum
I8=FIXT.1.1|35=0|34=2|49=TW|52=<TIME>|56=ISLD|10=256|
# expect Reject msg
E8=FIXT.1.1|9=59|35=3|34=2|49=ISLD|52=00000000-00:00:00.000|56=TW|45=2|58=Message failed basic validity check|372=0|10=0|
# Correct checksum
I8=FIXT.1.1|35=0|34=3|49=TW|52=<TIME>|56=ISLD|
# Incorrect checksum
I8=FIXT.1.1|35=D|34=4|49=TW|52=<TIME>|56=ISLD|11=ID|21=3|40=1|54=1|55=INTC|10=256|
# expect Reject msg
E8=FIXT.1.1|9=59|35=3|34=3|49=ISLD|52=00000000-00:00:00.000|56=TW|45=4|58=Message failed basic validity check|372=D|10=0|
# correct checksum
I8=FIXT.1.1|35=0|34=5|49=TW|52=<TIME>|56=ISLD|

# 35 is first field - note: FixMessageDecoder only considers messages starting with 8=FIX so 35 will be missing in the parsed msg
I35=0|8=FIXT.1.1|9=29|34=6|49=TW|52=<TIME>|56=ISLD|10=121|
# expect Reject msg
E8=FIXT.1.1|9=59|35=3|34=4|49=ISLD|52=00000000-00:00:00.000|56=TW|45=6|58=Message failed basic validity check|10=0|
# check seqnums are in sync
I8=FIXT.1.1|35=1|34=7|49=TW|52=<TIME>|56=ISLD|112=HELLO|
E8=FIXT.1.1|9=59|35=0|34=5|49=ISLD|52=00000000-00:00:00.000|56=TW|112=HELLO|10=0|

# 34 is second, should be third
I8=FIXT.1.1|34=8|35=0|49=TW|52=<TIME>|56=ISLD|
# expect Reject msg
E8=FIXT.1.1|9=59|35=3|34=6|49=ISLD|52=00000000-00:00:00.000|56=TW|45=8|58=Message failed basic validity check|372=0|10=0|
# check seqnums are in sync
I8=FIXT.1.1|35=1|34=9|49=TW|52=<TIME>|56=ISLD|112=HELLO|
E8=FIXT.1.1|9=59|35=0|34=7|49=ISLD|52=00000000-00:00:00.000|56=TW|112=HELLO|10=0|

# missing msgtype
I8=FIXT.1.1|34=10|49=TW|52=<TIME>|56=ISLD|
# expect Reject msg
E8=FIXT.1.1|9=59|35=3|34=8|49=ISLD|52=00000000-00:00:00.000|56=TW|45=10|58=Message failed basic validity check|10=0|

# check seqnums are in sync
I8=FIXT.1.1|35=1|34=11|49=TW|52=<TIME>|56=ISLD|112=HELLO|
E8=FIXT.1.1|9=59|35=0|34=9|49=ISLD|52=00000000-00:00:00.000|56=TW|112=HELLO|10=0|

# logout message and response
I8=FIXT.1.1|35=5|34=12|49=TW|52=<TIME>|56=ISLD|
E8=FIXT.1.1|9=49|35=5|34=10|49=ISLD|52=00000000-00:00:00.000|56=TW|10=0|

eDISCONNECT
