# FIX Logon using tag 141/ResetSeqNumFlag and tag 789/NextExpectedSeqMsgNum

iCONNECT
iSET_SESSION FIX.4.4:ISLD->TW NEXTSENDERSEQNUM=2000
iSET_SESSION FIX.4.4:ISLD->TW NEXTTARGETSEQNUM=2000

I8=FIX.4.4|35=A|34=1|49=TW|52=<TIME>|56=ISLD|98=0|789=1|141=Y|108=30|
E8=FIX.4.4|9=73|35=A|34=1|49=ISLD|52=00000000-00:00:00.000|56=TW|98=0|789=2|108=30|141=Y|10=0|

# logout message and response
I8=FIX.4.4|35=5|34=2|49=TW|52=<TIME>|56=ISLD|
E8=FIX.4.4|9=49|35=5|34=2|49=ISLD|52=00000000-00:00:00.000|56=TW|10=0|

eDISCONNECT