# If message NextExpectedMsgSeqNum field is too high, we must disconnect

iCONNECT
I8=FIXT.1.1|35=A|34=1000|49=TW|52=<TIME>|56=ISLD|98=0|789=1200|1137=10|108=30|

E8=FIXT.1.1|9=135|35=5|34=1|49=ISLD|52=00000000-00:00:00.000|56=TW|58=Tag 789 (NextExpectedMsgSeqNum) is higher than expected. Expected 1, Received 1200|10=0|
eDISCONNECT