iCONNECT
iSET_SESSION FIXT.1.1:ISLD->TW NEXTSENDERSEQNUM=2000

I8=FIXT.1.1|35=A|34=1|49=TW|52=<TIME>|56=ISLD|98=0|789=1|1137=10|108=30|

E8=FIXT.1.1|9=77|35=A|34=2000|49=ISLD|52=00000000-00:00:00.000|56=TW|98=0|789=2|108=30|1137=10|10=0|
E8=FIXT.1.1|35=4|34=1|49=ISLD|52=<TIME>|56=TW|36=2001|43=Y|123=Y|

# logout message and response
I8=FIXT.1.1|35=5|34=2|49=TW|52=<TIME>|56=ISLD|
E8=FIXT.1.1|9=52|35=5|34=2001|49=ISLD|52=00000000-00:00:00.000|56=TW|10=0|

eDISCONNECT