# FIX Logon using tag 141/ResetSeqNumFlag and tag 789/NextExpectedSeqMsgNum

iCONNECT
iSET_SESSION FIXT.1.1:ISLD->TW NEXTSENDERSEQNUM=2000
iSET_SESSION FIXT.1.1:ISLD->TW NEXTTARGETSEQNUM=2000

I8=FIXT.1.1|35=A|34=1|49=TW|52=<TIME>|56=ISLD|98=0|789=1|141=Y|1137=10|108=30|
E8=FIXT.1.1|9=80|35=A|34=1|49=ISLD|52=00000000-00:00:00.000|56=TW|98=0|789=2|108=30|141=Y|1137=10|10=0|

# logout message and response
I8=FIXT.1.1|35=5|34=2|49=TW|52=<TIME>|56=ISLD|
E8=FIXT.1.1|9=49|35=5|34=2|49=ISLD|52=00000000-00:00:00.000|56=TW|10=0|

eDISCONNECT