# If message sequence number is too high, send a resend request for
# missing messages

iCONNECT
I8=FIXT.1.1|35=A|34=1|49=TW|52=<TIME>|56=ISLD|98=0|108=2|1137=7|
E8=FIXT.1.1|9=67|35=A|34=1|49=ISLD|52=00000000-00:00:00.000|56=TW|98=0|108=2|1137=7|10=0|

I8=FIXT.1.1|35=D|34=2|49=TW|52=<TIME>|56=ISLD|11=ID|21=3|38=100|40=1|54=1|55=INTC|60=<TIME>|
E8=FIXT.1.1|9=81|35=D|34=2|49=ISLD|52=00000000-00:00:00|56=TW|11=ID|21=3|38=100|40=1|54=1|55=INTC|10=0|

I8=FIXT.1.1|35=D|34=3|49=TW|52=<TIME>|56=ISLD|11=ID|21=3|38=100|40=1|54=1|55=INTC|60=<TIME>|
E8=FIXT.1.1|9=81|35=D|34=3|49=ISLD|52=00000000-00:00:00|56=TW|11=ID|21=3|38=100|40=1|54=1|55=INTC|10=0|

# Sending message 15 when last message sent was 3
I8=FIXT.1.1|35=0|34=15|49=TW|52=<TIME>|56=ISLD|

# Receive Resend request for messages 4 to (4+5-1 = 8)
E8=FIXT.1.1|9=54|35=2|34=4|49=ISLD|52=00000000-00:00:00|56=TW|7=4|16=8|10=0|
# Send a GapFill up to the last message 8
I8=FIXT.1.1|35=4|34=4|49=TW|52=<TIME>|56=ISLD|123=Y|36=8|

# Receive Resend request for messages 9 to (9+5-1 = 13)
E8=FIXT.1.1|9=55|35=2|34=5|49=ISLD|52=00000000-00:00:00|56=TW|7=9|16=13|10=0|
# Send a GapFill up to the last message 13
I8=FIXT.1.1|35=4|34=9|49=TW|52=<TIME>|56=ISLD|123=Y|36=13|

# Receive Resend request for messages 14 to 15)
E8=FIXT.1.1|9=55|35=2|34=6|49=ISLD|52=00000000-00:00:00|56=TW|7=14|16=0|10=0|
# Send a GapFill up to the last message 15
I8=FIXT.1.1|35=4|34=14|49=TW|52=<TIME>|56=ISLD|123=Y|36=15|

#Sent test request to validate no seq num issue
I8=FIXT.1.1|35=1|34=16|49=TW|52=<TIME>|56=ISLD|112=TEST|
E8=FIXT.1.1|9=54|35=0|34=7|49=ISLD|52=00000000-00:00:00|56=TW|112=TEST|10=0|

# logout message and response
I8=FIXT.1.1|35=5|34=17|49=TW|52=<TIME>|56=ISLD|
E8=FIXT.1.1|9=45|35=5|34=8|49=ISLD|52=00000000-00:00:00|56=TW|10=0|

eDISCONNECT