# If message sequence number is too high, send a resend request for
# missing messages

iCONNECT
I8=FIX.4.1|35=A|34=1|49=TW|52=<TIME>|56=ISLD|98=0|108=30|
E8=FIX.4.1|9=57|35=A|34=1|49=ISLD|52=00000000-00:00:00|56=TW|98=0|108=30|10=0|

I8=FIX.4.1|35=D|34=2|49=TW|52=<TIME>|56=ISLD|11=ID|21=3|38=100|40=1|54=1|55=INTC|
E8=FIX.4.1|9=81|35=D|34=2|49=ISLD|52=00000000-00:00:00|56=TW|11=ID|21=3|38=100|40=1|54=1|55=INTC|10=0|

I8=FIX.4.1|35=D|34=3|49=TW|52=<TIME>|56=ISLD|11=ID|21=3|38=100|40=1|54=1|55=INTC|
E8=FIX.4.1|9=81|35=D|34=3|49=ISLD|52=00000000-00:00:00|56=TW|11=ID|21=3|38=100|40=1|54=1|55=INTC|10=0|

# Sending message 10 when last message sent was 3
I8=FIX.4.1|35=0|34=10|49=TW|52=<TIME>|56=ISLD|

# Receive Resend request for messages 4 to (4+5-1 = 8)
E8=FIX.4.1|9=54|35=2|34=4|49=ISLD|52=00000000-00:00:00|56=TW|7=4|16=8|10=0|
I8=FIX.4.1|35=D|34=4|49=TW|52=<TIME>|56=ISLD|97=Y|11=ID|21=3|38=100|40=1|54=1|55=INTC|
I8=FIX.4.1|35=D|34=5|49=TW|52=<TIME>|56=ISLD|97=Y|11=ID|21=3|38=100|40=1|54=1|55=INTC|
I8=FIX.4.1|35=D|34=6|49=TW|52=<TIME>|56=ISLD|97=Y|11=ID|21=3|38=100|40=1|54=1|55=INTC|
I8=FIX.4.1|35=D|34=7|49=TW|52=<TIME>|56=ISLD|97=Y|11=ID|21=3|38=100|40=1|54=1|55=INTC|
I8=FIX.4.1|35=D|34=8|49=TW|52=<TIME>|56=ISLD|97=Y|11=ID|21=3|38=100|40=1|54=1|55=INTC|

# Receive Resend request for messages 9 to infinity
E8=FIX.4.1|9=59|35=2|34=5|49=ISLD|52=00000000-00:00:00|56=TW|7=9|16=999999|10=0|
I8=FIX.4.1|35=D|34=9|49=TW|52=<TIME>|56=ISLD|97=Y|11=ID|21=3|38=100|40=1|54=1|55=INTC|

#Sent test request to validate no seq num issue
I8=FIX.4.1|35=1|34=11|49=TW|52=<TIME>|56=ISLD|112=TEST|
E8=FIX.4.1|9=54|35=0|34=6|49=ISLD|52=00000000-00:00:00|56=TW|112=TEST|10=0|

# logout message and response
I8=FIX.4.1|35=5|34=12|49=TW|52=<TIME>|56=ISLD|
E8=FIX.4.1|9=45|35=5|34=7|49=ISLD|52=00000000-00:00:00|56=TW|10=0|

eDISCONNECT