# QFJ-634 : sequence reset was not handled properly

iCONNECT
I8=FIXT.1.1|35=A|34=1|49=TW|52=<TIME>|56=ISLD|98=0|108=30|1137=10|
E8=FIXT.1.1|9=68|35=A|34=1|49=ISLD|52=00000000-00:00:00.000|56=TW|98=0|108=30|1137=10|10=0|

I8=FIXT.1.1|35=D|34=2|49=TW|52=<TIME>|56=ISLD|11=ID|21=3|40=1|54=1|55=INTC|60=<TIME>|
E8=FIXT.1.1|9=99|35=D|34=2|49=ISLD|52=00000000-00:00:00.000|56=TW|11=ID|21=3|40=1|54=1|55=INTC|60=00000000-00:00:00|10=0|

I8=FIXT.1.1|35=D|34=3|49=TW|52=<TIME>|56=ISLD|11=ID|21=3|40=1|54=1|55=INTC|60=<TIME>|
E8=FIXT.1.1|9=99|35=D|34=3|49=ISLD|52=00000000-00:00:00.000|56=TW|11=ID|21=3|40=1|54=1|55=INTC|60=00000000-00:00:00|10=0|

# Sending message 8 when last message sent was 3
I8=FIXT.1.1|35=0|34=8|49=TW|52=<TIME>|56=ISLD|
E8=FIXT.1.1|9=58|35=2|34=4|49=ISLD|52=00000000-00:00:00.000|56=TW|7=4|16=0|10=0|

# Resend messages 4
I8=FIXT.1.1|35=D|34=4|49=TW|52=<TIME>|56=ISLD|43=Y|122=<TIME-10>|11=ID|21=3|40=1|54=1|55=INTC|60=<TIME>|
E8=FIXT.1.1|9=99|35=D|34=5|49=ISLD|52=00000000-00:00:00.000|56=TW|11=ID|21=3|40=1|54=1|55=INTC|60=00000000-00:00:00|10=0|

# Sequence Reset to 5
I8=FIXT.1.1|35=4|34=5|49=TW|52=<TIME>|56=ISLD|123=Y|36=6|

# Resend messages 6
I8=FIXT.1.1|35=D|34=6|49=TW|52=<TIME>|56=ISLD|43=Y|122=<TIME-10>|11=ID|21=3|40=1|54=1|55=INTC|60=<TIME>|
E8=FIXT.1.1|9=99|35=D|34=6|49=ISLD|52=00000000-00:00:00.000|56=TW|11=ID|21=3|40=1|54=1|55=INTC|60=00000000-00:00:00|10=0|

# Sequence Reset to 8
I8=FIXT.1.1|35=4|34=7|49=TW|52=<TIME>|56=ISLD|123=Y|36=8|

# logout message and response
I8=FIXT.1.1|35=5|34=9|49=TW|52=<TIME>|56=ISLD|
E8=FIXT.1.1|9=49|35=5|34=7|49=ISLD|52=00000000-00:00:00.000|56=TW|10=0|

eDISCONNECT